{
  "contractName": "Certchain",
  "abi": [
    {
      "inputs": [
        {
          "internalType": "string",
          "name": "_hash",
          "type": "string"
        },
        {
          "internalType": "string",
          "name": "_description",
          "type": "string"
        }
      ],
      "name": "addIPFSHash",
      "outputs": [],
      "stateMutability": "nonpayable",
      "type": "function"
    },
    {
      "inputs": [],
      "name": "getIPFSHashes",
      "outputs": [
        {
          "components": [
            {
              "internalType": "string",
              "name": "hash",
              "type": "string"
            },
            {
              "internalType": "string",
              "name": "description",
              "type": "string"
            },
            {
              "internalType": "address",
              "name": "user",
              "type": "address"
            }
          ],
          "internalType": "struct Certchain.IPFSHash[]",
          "name": "",
          "type": "tuple[]"
        }
      ],
      "stateMutability": "view",
      "type": "function",
      "constant": true
    },
    {
      "inputs": [],
      "name": "getUserIPFSHashes",
      "outputs": [
        {
          "components": [
            {
              "internalType": "string",
              "name": "hash",
              "type": "string"
            },
            {
              "internalType": "string",
              "name": "description",
              "type": "string"
            },
            {
              "internalType": "address",
              "name": "user",
              "type": "address"
            }
          ],
          "internalType": "struct Certchain.IPFSHash[]",
          "name": "",
          "type": "tuple[]"
        }
      ],
      "stateMutability": "view",
      "type": "function",
      "constant": true
    },
    {
      "inputs": [
        {
          "internalType": "string",
          "name": "_hash",
          "type": "string"
        },
        {
          "internalType": "string",
          "name": "_newDescription",
          "type": "string"
        }
      ],
      "name": "editIPFSHashDescription",
      "outputs": [],
      "stateMutability": "nonpayable",
      "type": "function"
    },
    {
      "inputs": [
        {
          "internalType": "string",
          "name": "_hash",
          "type": "string"
        }
      ],
      "name": "deleteIPFSHash",
      "outputs": [],
      "stateMutability": "nonpayable",
      "type": "function"
    }
  ],
  "bytecode": "0x608060405234801561001057600080fd5b50611a60806100206000396000f3fe608060405234801561001057600080fd5b50600436106100575760003560e01c806333781a9d1461005c578063954bad741461007a5780639f38701314610096578063a4b47cf4146100b2578063e504c2dc146100d0575b600080fd5b6100646100ec565b6040516100719190610f80565b60405180910390f35b610094600480360381019061008f91906110eb565b61046c565b005b6100b060048036038101906100ab9190611163565b6105e1565b005b6100ba61094d565b6040516100c79190610f80565b60405180910390f35b6100ea60048036038101906100e591906110eb565b610b26565b005b60606000808054905090506000805b8281101561019d573373ffffffffffffffffffffffffffffffffffffffff166000828154811061012e5761012d6111ac565b5b906000526020600020906003020160020160009054906101000a900473ffffffffffffffffffffffffffffffffffffffff1673ffffffffffffffffffffffffffffffffffffffff160361018a57818061018690611214565b9250505b808061019590611214565b9150506100fb565b5060008167ffffffffffffffff8111156101ba576101b9610fc0565b5b6040519080825280602002602001820160405280156101f357816020015b6101e0610d02565b8152602001906001900390816101d85790505b5090506000805b84811015610461573373ffffffffffffffffffffffffffffffffffffffff166000828154811061022d5761022c6111ac565b5b906000526020600020906003020160020160009054906101000a900473ffffffffffffffffffffffffffffffffffffffff1673ffffffffffffffffffffffffffffffffffffffff160361044e576000818154811061028e5761028d6111ac565b5b90600052602060002090600302016040518060600160405290816000820180546102b79061128b565b80601f01602080910402602001604051908101604052809291908181526020018280546102e39061128b565b80156103305780601f1061030557610100808354040283529160200191610330565b820191906000526020600020905b81548152906001019060200180831161031357829003601f168201915b505050505081526020016001820180546103499061128b565b80601f01602080910402602001604051908101604052809291908181526020018280546103759061128b565b80156103c25780601f10610397576101008083540402835291602001916103c2565b820191906000526020600020905b8154815290600101906020018083116103a557829003601f168201915b505050505081526020016002820160009054906101000a900473ffffffffffffffffffffffffffffffffffffffff1673ffffffffffffffffffffffffffffffffffffffff1673ffffffffffffffffffffffffffffffffffffffff1681525050838381518110610434576104336111ac565b5b6020026020010181905250818061044a90611214565b9250505b808061045990611214565b9150506101fa565b508194505050505090565b600060405180606001604052808481526020018381526020013373ffffffffffffffffffffffffffffffffffffffff16815250908060018154018082558091505060019003906000526020600020906003020160009091909190915060008201518160000190816104dd9190611468565b5060208201518160010190816104f39190611468565b5060408201518160020160006101000a81548173ffffffffffffffffffffffffffffffffffffffff021916908373ffffffffffffffffffffffffffffffffffffffff160217905550505060006001600080549050610551919061153a565b9050600160003373ffffffffffffffffffffffffffffffffffffffff1673ffffffffffffffffffffffffffffffffffffffff168152602001908152602001600020819080600181540180825580915050600190039060005260206000200160009091909190915055806002846040516105ca91906115aa565b908152602001604051809103902081905550505050565b60006002826040516105f391906115aa565b908152602001604051809103902054905060008114158061069357506000808054905011801561069257508160405160200161062f919061160b565b6040516020818303038152906040528051906020012060008081548110610659576106586111ac565b5b906000526020600020906003020160000160405160200161067a91906116b1565b60405160208183030381529060405280519060200120145b5b6106d2576040517f08c379a00000000000000000000000000000000000000000000000000000000081526004016106c99061171f565b60405180910390fd5b3373ffffffffffffffffffffffffffffffffffffffff16600082815481106106fd576106fc6111ac565b5b906000526020600020906003020160020160009054906101000a900473ffffffffffffffffffffffffffffffffffffffff1673ffffffffffffffffffffffffffffffffffffffff1614610785576040517f08c379a000000000000000000000000000000000000000000000000000000000815260040161077c906117b1565b60405180910390fd5b60006001600080549050610799919061153a565b815481106107aa576107a96111ac565b5b9060005260206000209060030201600082815481106107cc576107cb6111ac565b5b9060005260206000209060030201600082018160000190816107ee91906117e7565b506001820181600101908161080391906117e7565b506002820160009054906101000a900473ffffffffffffffffffffffffffffffffffffffff168160020160006101000a81548173ffffffffffffffffffffffffffffffffffffffff021916908373ffffffffffffffffffffffffffffffffffffffff16021790555090505080600260008381548110610885576108846111ac565b5b90600052602060002090600302016000016040516108a39190611952565b90815260200160405180910390208190555060008054806108c7576108c6611969565b5b6001900381819060005260206000209060030201600080820160006108ec9190610d39565b6001820160006108fc9190610d39565b6002820160006101000a81549073ffffffffffffffffffffffffffffffffffffffff02191690555050905560028260405161093791906115aa565b9081526020016040518091039020600090555050565b60606000805480602002602001604051908101604052809291908181526020016000905b82821015610b1d57838290600052602060002090600302016040518060600160405290816000820180546109a49061128b565b80601f01602080910402602001604051908101604052809291908181526020018280546109d09061128b565b8015610a1d5780601f106109f257610100808354040283529160200191610a1d565b820191906000526020600020905b815481529060010190602001808311610a0057829003601f168201915b50505050508152602001600182018054610a369061128b565b80601f0160208091040260200160405190810160405280929190818152602001828054610a629061128b565b8015610aaf5780601f10610a8457610100808354040283529160200191610aaf565b820191906000526020600020905b815481529060010190602001808311610a9257829003601f168201915b505050505081526020016002820160009054906101000a900473ffffffffffffffffffffffffffffffffffffffff1673ffffffffffffffffffffffffffffffffffffffff1673ffffffffffffffffffffffffffffffffffffffff168152505081526020019060010190610971565b50505050905090565b6000600283604051610b3891906115aa565b9081526020016040518091039020549050600081141580610bd8575060008080549050118015610bd7575082604051602001610b74919061160b565b6040516020818303038152906040528051906020012060008081548110610b9e57610b9d6111ac565b5b9060005260206000209060030201600001604051602001610bbf91906116b1565b60405160208183030381529060405280519060200120145b5b610c17576040517f08c379a0000000000000000000000000000000000000000000000000000000008152600401610c0e9061171f565b60405180910390fd5b3373ffffffffffffffffffffffffffffffffffffffff1660008281548110610c4257610c416111ac565b5b906000526020600020906003020160020160009054906101000a900473ffffffffffffffffffffffffffffffffffffffff1673ffffffffffffffffffffffffffffffffffffffff1614610cca576040517f08c379a0000000000000000000000000000000000000000000000000000000008152600401610cc190611a0a565b60405180910390fd5b8160008281548110610cdf57610cde6111ac565b5b90600052602060002090600302016001019081610cfc9190611468565b50505050565b60405180606001604052806060815260200160608152602001600073ffffffffffffffffffffffffffffffffffffffff1681525090565b508054610d459061128b565b6000825580601f10610d575750610d76565b601f016020900490600052602060002090810190610d759190610d79565b5b50565b5b80821115610d92576000816000905550600101610d7a565b5090565b600081519050919050565b600082825260208201905092915050565b6000819050602082019050919050565b600081519050919050565b600082825260208201905092915050565b60005b83811015610dfc578082015181840152602081019050610de1565b60008484015250505050565b6000601f19601f8301169050919050565b6000610e2482610dc2565b610e2e8185610dcd565b9350610e3e818560208601610dde565b610e4781610e08565b840191505092915050565b600073ffffffffffffffffffffffffffffffffffffffff82169050919050565b6000610e7d82610e52565b9050919050565b610e8d81610e72565b82525050565b60006060830160008301518482036000860152610eb08282610e19565b91505060208301518482036020860152610eca8282610e19565b9150506040830151610edf6040860182610e84565b508091505092915050565b6000610ef68383610e93565b905092915050565b6000602082019050919050565b6000610f1682610d96565b610f208185610da1565b935083602082028501610f3285610db2565b8060005b85811015610f6e5784840389528151610f4f8582610eea565b9450610f5a83610efe565b925060208a01995050600181019050610f36565b50829750879550505050505092915050565b60006020820190508181036000830152610f9a8184610f0b565b905092915050565b6000604051905090565b600080fd5b600080fd5b600080fd5b600080fd5b7f4e487b7100000000000000000000000000000000000000000000000000000000600052604160045260246000fd5b610ff882610e08565b810181811067ffffffffffffffff8211171561101757611016610fc0565b5b80604052505050565b600061102a610fa2565b90506110368282610fef565b919050565b600067ffffffffffffffff82111561105657611055610fc0565b5b61105f82610e08565b9050602081019050919050565b82818337600083830152505050565b600061108e6110898461103b565b611020565b9050828152602081018484840111156110aa576110a9610fbb565b5b6110b584828561106c565b509392505050565b600082601f8301126110d2576110d1610fb6565b5b81356110e284826020860161107b565b91505092915050565b6000806040838503121561110257611101610fac565b5b600083013567ffffffffffffffff8111156111205761111f610fb1565b5b61112c858286016110bd565b925050602083013567ffffffffffffffff81111561114d5761114c610fb1565b5b611159858286016110bd565b9150509250929050565b60006020828403121561117957611178610fac565b5b600082013567ffffffffffffffff81111561119757611196610fb1565b5b6111a3848285016110bd565b91505092915050565b7f4e487b7100000000000000000000000000000000000000000000000000000000600052603260045260246000fd5b7f4e487b7100000000000000000000000000000000000000000000000000000000600052601160045260246000fd5b6000819050919050565b600061121f8261120a565b91507fffffffffffffffffffffffffffffffffffffffffffffffffffffffffffffffff8203611251576112506111db565b5b600182019050919050565b7f4e487b7100000000000000000000000000000000000000000000000000000000600052602260045260246000fd5b600060028204905060018216806112a357607f821691505b6020821081036112b6576112b561125c565b5b50919050565b60008190508160005260206000209050919050565b60006020601f8301049050919050565b600082821b905092915050565b60006008830261131e7fffffffffffffffffffffffffffffffffffffffffffffffffffffffffffffffff826112e1565b61132886836112e1565b95508019841693508086168417925050509392505050565b6000819050919050565b600061136561136061135b8461120a565b611340565b61120a565b9050919050565b6000819050919050565b61137f8361134a565b61139361138b8261136c565b8484546112ee565b825550505050565b600090565b6113a861139b565b6113b3818484611376565b505050565b5b818110156113d7576113cc6000826113a0565b6001810190506113b9565b5050565b601f82111561141c576113ed816112bc565b6113f6846112d1565b81016020851015611405578190505b611419611411856112d1565b8301826113b8565b50505b505050565b600082821c905092915050565b600061143f60001984600802611421565b1980831691505092915050565b6000611458838361142e565b9150826002028217905092915050565b61147182610dc2565b67ffffffffffffffff81111561148a57611489610fc0565b5b611494825461128b565b61149f8282856113db565b600060209050601f8311600181146114d257600084156114c0578287015190505b6114ca858261144c565b865550611532565b601f1984166114e0866112bc565b60005b82811015611508578489015182556001820191506020850194506020810190506114e3565b868310156115255784890151611521601f89168261142e565b8355505b6001600288020188555050505b505050505050565b60006115458261120a565b91506115508361120a565b9250828203905081811115611568576115676111db565b5b92915050565b600081905092915050565b600061158482610dc2565b61158e818561156e565b935061159e818560208601610dde565b80840191505092915050565b60006115b68284611579565b915081905092915050565b600082825260208201905092915050565b60006115dd82610dc2565b6115e781856115c1565b93506115f7818560208601610dde565b61160081610e08565b840191505092915050565b6000602082019050818103600083015261162581846115d2565b905092915050565b6000815461163a8161128b565b61164481866115c1565b9450600182166000811461165f5760018114611675576116a8565b60ff1983168652811515602002860193506116a8565b61167e856112bc565b60005b838110156116a057815481890152600182019150602081019050611681565b808801955050505b50505092915050565b600060208201905081810360008301526116cb818461162d565b905092915050565b7f48617368206e6f7420666f756e64000000000000000000000000000000000000600082015250565b6000611709600e836115c1565b9150611714826116d3565b602082019050919050565b60006020820190508181036000830152611738816116fc565b9050919050565b7f4f6e6c792074686520757365722077686f20616464656420746865206861736860008201527f2063616e2064656c657465206974000000000000000000000000000000000000602082015250565b600061179b602e836115c1565b91506117a68261173f565b604082019050919050565b600060208201905081810360008301526117ca8161178e565b9050919050565b6000815490506117e08161128b565b9050919050565b8181036117f55750506118cd565b6117fe826117d1565b67ffffffffffffffff81111561181757611816610fc0565b5b611821825461128b565b61182c8282856113db565b6000601f83116001811461185b5760008415611849578287015490505b611853858261144c565b8655506118c6565b601f198416611869876112bc565b9650611874866112bc565b60005b8281101561189c57848901548255600182019150600185019450602081019050611877565b868310156118b957848901546118b5601f89168261142e565b8355505b6001600288020188555050505b5050505050505b565b600081546118dc8161128b565b6118e6818661156e565b94506001821660008114611901576001811461191657611949565b60ff1983168652811515820286019350611949565b61191f856112bc565b60005b8381101561194157815481890152600182019150602081019050611922565b838801955050505b50505092915050565b600061195e82846118cf565b915081905092915050565b7f4e487b7100000000000000000000000000000000000000000000000000000000600052603160045260246000fd5b7f4f6e6c792074686520757365722077686f20616464656420746865206861736860008201527f2063616e206564697420697473206465736372697074696f6e00000000000000602082015250565b60006119f46039836115c1565b91506119ff82611998565b604082019050919050565b60006020820190508181036000830152611a23816119e7565b905091905056fea264697066735822122070fc22bb5cef434ba4948ce4fbe33e1ba352d5140e3cc7546f342b0438fe997b64736f6c63430008110033",
  "immutableReferences": {},
  "source": "// SPDX-License-Identifier: UNLICENSED\r\npragma solidity ^0.8.0;\r\n\r\ncontract Certchain {\r\n    struct IPFSHash {\r\n        string hash;\r\n        string description;\r\n        address user;\r\n    }\r\n    \r\n    IPFSHash[] private ipfsHashes;\r\n    \r\n    mapping(address => uint[]) private userIndexes;\r\n    mapping(string => uint) private hashIndexes;\r\n    \r\n    function addIPFSHash(string memory _hash, string memory _description) public {\r\n        ipfsHashes.push(IPFSHash(_hash, _description, msg.sender));\r\n        uint index = ipfsHashes.length - 1;\r\n        userIndexes[msg.sender].push(index);\r\n        hashIndexes[_hash] = index;\r\n    }\r\n    \r\n    function getIPFSHashes() public view returns (IPFSHash[] memory) {\r\n        return ipfsHashes;\r\n    }\r\n    \r\n    function getUserIPFSHashes() public view returns (IPFSHash[] memory) {\r\n        uint hashCount = ipfsHashes.length;\r\n        uint userHashCount = 0;\r\n\r\n        // Get the number of hashes stored by the user\r\n        for (uint i = 0; i < hashCount; i++) {\r\n            if (ipfsHashes[i].user == msg.sender) {\r\n                userHashCount++;\r\n            }\r\n        }\r\n\r\n        // Create a new array to store the user's hashes\r\n        IPFSHash[] memory userHashes = new IPFSHash[](userHashCount);\r\n\r\n        // Loop through all the hashes and add the ones belonging to the user to the new array\r\n        uint userIndex = 0;\r\n        for (uint i = 0; i < hashCount; i++) {\r\n            if (ipfsHashes[i].user == msg.sender) {\r\n                userHashes[userIndex] = ipfsHashes[i];\r\n                userIndex++;\r\n            }\r\n        }\r\n\r\n        return userHashes;\r\n    }\r\n\r\n    \r\n    function editIPFSHashDescription(string memory _hash, string memory _newDescription) public {\r\n        uint index = hashIndexes[_hash];\r\n        require(index != 0 || (ipfsHashes.length > 0 && keccak256(abi.encode(ipfsHashes[0].hash)) == keccak256(abi.encode(_hash))), \"Hash not found\");\r\n        require(ipfsHashes[index].user == msg.sender, \"Only the user who added the hash can edit its description\");\r\n\r\n        ipfsHashes[index].description = _newDescription;\r\n    }\r\n\r\n    function deleteIPFSHash(string memory _hash) public {\r\n        uint index = hashIndexes[_hash];\r\n        require(index != 0 || (ipfsHashes.length > 0 && keccak256(abi.encode(ipfsHashes[0].hash)) == keccak256(abi.encode(_hash))), \"Hash not found\");\r\n        require(ipfsHashes[index].user == msg.sender, \"Only the user who added the hash can delete it\");\r\n\r\n        // Remove the hash from the ipfsHashes array\r\n        ipfsHashes[index] = ipfsHashes[ipfsHashes.length - 1];\r\n        hashIndexes[ipfsHashes[index].hash] = index;\r\n        ipfsHashes.pop();\r\n        delete hashIndexes[_hash];\r\n    }\r\n}",
  "sourcePath": "E:\\repos\\certchain\\contracts\\Certchain.sol",
  "compiler": {
    "name": "solc",
    "version": "0.8.17+commit.8df45f5f.Emscripten.clang"
  },
  "schemaVersion": "3.4.11",
  "updatedAt": "2023-02-20T05:01:47.383Z",
  "networkType": "ethereum",
  "devdoc": {
    "kind": "dev",
    "methods": {},
    "version": 1
  },
  "userdoc": {
    "kind": "user",
    "methods": {},
    "version": 1
  }
}